{"abi":[{"type":"constructor","inputs":[{"name":"name","type":"string","internalType":"string"},{"name":"version","type":"uint256","internalType":"uint256"},{"name":"plugin","type":"address","internalType":"address"}],"stateMutability":"nonpayable"},{"type":"receive","stateMutability":"payable"},{"type":"function","name":"_plugin","inputs":[],"outputs":[{"name":"","type":"address","internalType":"address"}],"stateMutability":"view"},{"type":"function","name":"aerodromeFactory","inputs":[],"outputs":[{"name":"","type":"address","internalType":"contract IPoolFactory"}],"stateMutability":"view"},{"type":"function","name":"aerodromeRouter","inputs":[],"outputs":[{"name":"","type":"address","internalType":"contract IRouter"}],"stateMutability":"view"},{"type":"function","name":"execute","inputs":[{"name":"data","type":"bytes","internalType":"bytes"}],"outputs":[{"name":"","type":"bytes","internalType":"bytes"}],"stateMutability":"payable"},{"type":"function","name":"execute","inputs":[{"name":"data","type":"bytes","internalType":"bytes"},{"name":"caller","type":"address","internalType":"address"}],"outputs":[{"name":"","type":"bytes","internalType":"bytes"}],"stateMutability":"payable"},{"type":"function","name":"getName","inputs":[],"outputs":[{"name":"","type":"string","internalType":"string"}],"stateMutability":"view"},{"type":"function","name":"getVersion","inputs":[],"outputs":[{"name":"","type":"uint256","internalType":"uint256"}],"stateMutability":"view"},{"type":"function","name":"quoteDepositLiquidity","inputs":[{"name":"tokenA","type":"address","internalType":"address"},{"name":"tokenB","type":"address","internalType":"address"},{"name":"stable","type":"bool","internalType":"bool"},{"name":"amountA","type":"uint256","internalType":"uint256"},{"name":"amountB","type":"uint256","internalType":"uint256"},{"name":"balanceTokenRatio","type":"bool","internalType":"bool"}],"outputs":[{"name":"amountAOut","type":"uint256","internalType":"uint256"},{"name":"amountBOut","type":"uint256","internalType":"uint256"}],"stateMutability":"view"},{"type":"event","name":"AeroRewardsClaimed","inputs":[{"name":"guageAddress","type":"address","indexed":true,"internalType":"address"},{"name":"rewardToken","type":"address","indexed":true,"internalType":"address"}],"anonymous":false},{"type":"event","name":"FeesWithdrawn","inputs":[{"name":"poolAddress","type":"address","indexed":true,"internalType":"address"},{"name":"token0","type":"address","indexed":false,"internalType":"address"},{"name":"amount0","type":"uint256","indexed":false,"internalType":"uint256"},{"name":"token1","type":"address","indexed":false,"internalType":"address"},{"name":"amount1","type":"uint256","indexed":false,"internalType":"uint256"}],"anonymous":false},{"type":"event","name":"LPTokenStaked","inputs":[{"name":"guageAddress","type":"address","indexed":true,"internalType":"address"},{"name":"amount","type":"uint256","indexed":false,"internalType":"uint256"}],"anonymous":false},{"type":"event","name":"LPTokenUnStaked","inputs":[{"name":"guageAddress","type":"address","indexed":true,"internalType":"address"},{"name":"amount","type":"uint256","indexed":false,"internalType":"uint256"},{"name":"recepient","type":"address","indexed":true,"internalType":"address"}],"anonymous":false},{"type":"event","name":"LiquidityAdded","inputs":[{"name":"tokenA","type":"address","indexed":true,"internalType":"address"},{"name":"tokenB","type":"address","indexed":true,"internalType":"address"},{"name":"amountA","type":"uint256","indexed":false,"internalType":"uint256"},{"name":"amountB","type":"uint256","indexed":false,"internalType":"uint256"},{"name":"liquidity","type":"uint256","indexed":false,"internalType":"uint256"}],"anonymous":false},{"type":"event","name":"LiquidityRemoved","inputs":[{"name":"tokenA","type":"address","indexed":true,"internalType":"address"},{"name":"tokenB","type":"address","indexed":true,"internalType":"address"},{"name":"amountA","type":"uint256","indexed":false,"internalType":"uint256"},{"name":"amountB","type":"uint256","indexed":false,"internalType":"uint256"},{"name":"liquidity","type":"uint256","indexed":false,"internalType":"uint256"}],"anonymous":false},{"type":"event","name":"Swapped","inputs":[{"name":"tokenIn","type":"address","indexed":true,"internalType":"address"},{"name":"tokenOut","type":"address","indexed":true,"internalType":"address"},{"name":"amountIn","type":"uint256","indexed":false,"internalType":"uint256"},{"name":"amountOut","type":"uint256","indexed":false,"internalType":"uint256"}],"anonymous":false},{"type":"error","name":"AerodromeUtils_ExceededMaxPriceImpact","inputs":[]},{"type":"error","name":"AerodromeUtils_ExceededMaxSlippage","inputs":[]},{"type":"error","name":"AerodromeUtils_ExceededMaxValueLoss","inputs":[]},{"type":"error","name":"DeadlineExpired","inputs":[]},{"type":"error","name":"ExecutionFailed","inputs":[{"name":"reason","type":"string","internalType":"string"}]},{"type":"error","name":"IncorrectETHAmount","inputs":[]},{"type":"error","name":"InsufficientLiquidity","inputs":[]},{"type":"error","name":"InvalidSelector","inputs":[]},{"type":"error","name":"InvalidVersionNumber","inputs":[]},{"type":"error","name":"PoolDoesNotExist","inputs":[]},{"type":"error","name":"SlippageExceeded","inputs":[]},{"type":"error","name":"UnauthorizedCaller","inputs":[]}],"bytecode":{"object":"0x610120604052346200018057620040c8803803806200001e81620001ac565b928339810190606081830312620001805780516001600160401b0392908381116200018057820181601f8201121562000180578051938411620001985760209362000072601f8201601f19168601620001ac565b92818452858284010111620001805784915f5b828110620001845750505f908301909101528183015160409290920151926001600160a01b0384168403620001805782156200016e57815191012060805260a05260c05273cf77a3ba9a5ca399b7c97c74d54e5b1beb874e4360e05261010073420dd381b31aef6683db6b902084cb0ffece40da8152604051613ef59182620001d383396080518261060c015260a05182610672015260c0518281816106df0152610912015260e0518281816104ce01528181611476015281816115140152818161167e01528181611db0015261213a01525181818161053c01528181610aa40152611cca0152f35b60405163ad92452760e01b8152600490fd5b5f80fd5b818101840151858201850152830162000085565b634e487b7160e01b5f52604160045260245ffd5b6040519190601f01601f191682016001600160401b03811183821017620001985760405256fe6101a0604052600436101561001b575b3615610019575f80fd5b005b5f3560e01c806309c5eabe146107035780630cfd9ad4146106955780630d8e6e2c1461063d57806317d7de7c146105d65780636accdc1314610560578063c45acd23146104f2578063e18e3a68146104845763e69224d40361000f57346104805760c07ffffffffffffffffffffffffffffffffffffffffffffffffffffffffffffffffc3601126104805773ffffffffffffffffffffffffffffffffffffffff6004351660043503610480576100cf6107e4565b6044351515604435036104805760a435151560a43503610480576040517f79bc57d500000000000000000000000000000000000000000000000000000000815273ffffffffffffffffffffffffffffffffffffffff60048035821690830152821660248201526044803515159082015260843590606480359060209083908173420dd381b31aef6683db6b902084cb0ffece40da5afa9182156102b35773ffffffffffffffffffffffffffffffffffffffff926020915f91610463575b506004604051809581937fc45a0155000000000000000000000000000000000000000000000000000000008352165afa9182156102b3575f92610432575b505f925f915b600283106102be575b5050604080517fc92de3ec00000000000000000000000000000000000000000000000000000000815273ffffffffffffffffffffffffffffffffffffffff60048035821690830152958616602482015260448035151590820152949092166064850152506084830191909152818060a48101038173cf77a3ba9a5ca399b7c97c74d54e5b1beb874e435afa9081156102b3576040915f915f91610284575b5082519182526020820152f35b90506102a69150823d84116102ac575b61029e81836108ca565b810190612cdd565b5f610277565b503d610294565b6040513d5f823e3d90fd5b60a4949192943561040d575b604051907fce700c2900000000000000000000000000000000000000000000000000000000825273ffffffffffffffffffffffffffffffffffffffff60043516600483015273ffffffffffffffffffffffffffffffffffffffff871660248301526044351515604483015273ffffffffffffffffffffffffffffffffffffffff851660648301528060848301528360a483015260608260c48173cf77a3ba9a5ca399b7c97c74d54e5b1beb874e435afa80156102b3576103a9925f80915f936103d2575b5061039d906103a39394612be6565b95612be6565b92612d0e565b93604435156044356103c8575b6103c357600101916101d0565b6101d9565b5060a435156103b6565b6103a3935061039d92506103fe915060603d606011610406575b6103f681836108ca565b810190612cf3565b93509161038e565b503d6103ec565b61042b919261042360443582848a60043561358d565b919092613438565b91906102ca565b61045591925060203d60201161045c575b61044d81836108ca565b810190612b2c565b905f6101ca565b503d610443565b61047a9150823d841161045c5761044d81836108ca565b5f61018c565b5f80fd5b34610480575f7ffffffffffffffffffffffffffffffffffffffffffffffffffffffffffffffffc36011261048057602060405173ffffffffffffffffffffffffffffffffffffffff7f0000000000000000000000000000000000000000000000000000000000000000168152f35b34610480575f7ffffffffffffffffffffffffffffffffffffffffffffffffffffffffffffffffc36011261048057602060405173ffffffffffffffffffffffffffffffffffffffff7f0000000000000000000000000000000000000000000000000000000000000000168152f35b60407ffffffffffffffffffffffffffffffffffffffffffffffffffffffffffffffffc3601126104805760043567ffffffffffffffff8111610480576105be6105b06105d292369060040161075a565b6105b86107e4565b9161090b565b604051918291602083526020830190610788565b0390f35b34610480575f7ffffffffffffffffffffffffffffffffffffffffffffffffffffffffffffffffc360112610480576105d26040517f00000000000000000000000000000000000000000000000000000000000000006020820152602081526105be81610892565b34610480575f7ffffffffffffffffffffffffffffffffffffffffffffffffffffffffffffffffc3601126104805760206040517f00000000000000000000000000000000000000000000000000000000000000008152f35b34610480575f7ffffffffffffffffffffffffffffffffffffffffffffffffffffffffffffffffc36011261048057602060405173ffffffffffffffffffffffffffffffffffffffff7f0000000000000000000000000000000000000000000000000000000000000000168152f35b60207ffffffffffffffffffffffffffffffffffffffffffffffffffffffffffffffffc3601126104805760043567ffffffffffffffff8111610480576105be6107536105d292369060040161075a565b339161090b565b9181601f840112156104805782359167ffffffffffffffff8311610480576020838186019501011161048057565b91908251928382525f5b8481106107d05750507fffffffffffffffffffffffffffffffffffffffffffffffffffffffffffffffe0601f845f6020809697860101520116010190565b602081830181015184830182015201610792565b6024359073ffffffffffffffffffffffffffffffffffffffff8216820361048057565b359073ffffffffffffffffffffffffffffffffffffffff8216820361048057565b3590811515820361048057565b67ffffffffffffffff811161084957604052565b7f4e487b71000000000000000000000000000000000000000000000000000000005f52604160045260245ffd5b6080810190811067ffffffffffffffff82111761084957604052565b6040810190811067ffffffffffffffff82111761084957604052565b6060810190811067ffffffffffffffff82111761084957604052565b90601f7fffffffffffffffffffffffffffffffffffffffffffffffffffffffffffffffe0910116810190811067ffffffffffffffff82111761084957604052565b915f9190337f000000000000000000000000000000000000000000000000000000000000000073ffffffffffffffffffffffffffffffffffffffff1603612b2457915b816004116104805783357fffffffff00000000000000000000000000000000000000000000000000000000167f5a47ddc3000000000000000000000000000000000000000000000000000000008103611ba757505f925f946101407ffffffffffffffffffffffffffffffffffffffffffffffffffffffffffffffffc825f968101030112610480576109e260048201610807565b610180526109f260248201610807565b61014052610a0260448201610828565b90610a0f60e48201610828565b610a1c6101048301610807565b906101248301354211611b7d576040517f79bc57d5000000000000000000000000000000000000000000000000000000008152610140516101805173ffffffffffffffffffffffffffffffffffffffff90811660048401521660248201528415156044820152906020828060648101038173ffffffffffffffffffffffffffffffffffffffff7f0000000000000000000000000000000000000000000000000000000000000000165afa9182156102b3575f92611b5c575b5073ffffffffffffffffffffffffffffffffffffffff821615611b32575f60648501356119cf575b6084850135611816575b5091610b1182612d1b565b92606485013560a0526084850135610160525f610120525b60026101205110611441575b5050610b4090612d1b565b818082111561143257610b5291612be6565b61271081029080820461271014901517156112e757606491610b7391613494565b11611408576040517f79bc57d5000000000000000000000000000000000000000000000000000000008152610140516101805173ffffffffffffffffffffffffffffffffffffffff908116600484015216602482015282151560448201529060208260648173420dd381b31aef6683db6b902084cb0ffece40da5afa9182156102b35773ffffffffffffffffffffffffffffffffffffffff926020915f916113eb575b506004604051809581937fc45a0155000000000000000000000000000000000000000000000000000000008352165afa9182156102b3575f926113ca575b50604080517fc92de3ec000000000000000000000000000000000000000000000000000000008152610140516101805173ffffffffffffffffffffffffffffffffffffffff908116600484015290811660248301528515156044830152841660648201526084810188905291908260a48173cf77a3ba9a5ca399b7c97c74d54e5b1beb874e435afa9384156102b3575f925f956113a3575b5060a482013583108015611396575b61136c5773ffffffffffffffffffffffffffffffffffffffff610d1c612dd9565b9460405192610d2a84610876565b8261014051168452826101805116602085015215156040840152166060820152610d5384612b88565b52610d5d83612b88565b50604051927f5509a1ac00000000000000000000000000000000000000000000000000000000845260848201356004850152604060248501525f8480610da66044820185612c6d565b038173cf77a3ba9a5ca399b7c97c74d54e5b1beb874e435afa9081156102b357610e2c610ded610de25f94610e6d988691611352575b50612bc2565b516064860135612d0e565b9685606486013511841461134b57610e09866064870135612be6565b945b81806084830135118614611342576084610e26920135612be6565b90612d0e565b60405195869283927f5509a1ac0000000000000000000000000000000000000000000000000000000084526004840152604060248401526044830190612c6d565b038173cf77a3ba9a5ca399b7c97c74d54e5b1beb874e435afa9182156102b357610eb3935f93611314575b50610eac91610ea691612d0e565b91612bc2565b5190612d0e565b818110611286575b505060a051611134575b61016051610fa2575b505090610f73610f9f9260405173ffffffffffffffffffffffffffffffffffffffff6101405116907f4a1a2a6176e9646d9e3157f7c2ab3c499f18337c0b0828cfb28e0a61de4a11f773ffffffffffffffffffffffffffffffffffffffff61018051169180610f50868b8a846040919493926060820195825260208201520152565b0390a3604051948593602085016040919493926060820195825260208201520152565b037fffffffffffffffffffffffffffffffffffffffffffffffffffffffffffffffe081018352826108ca565b90565b7342000000000000000000000000000000000000068073ffffffffffffffffffffffffffffffffffffffff6101405116145f1461107957803b15611075578280916024604051809481937f2e1a7d4d0000000000000000000000000000000000000000000000000000000083526101605160048401525af1801561106a57611052575b509161104b828080610f7395610f9f989761016051905af16110456134cb565b50613528565b9192610ece565b61105c8391610835565b611066575f611025565b5080fd5b6040513d85823e3d90fd5b8280fd5b506040517fa9059cbb0000000000000000000000000000000000000000000000000000000081526101605173ffffffffffffffffffffffffffffffffffffffff9283166004830152602482015261014051909291602091849160449183918691165af1908115611128575091610f7391610f9f94936110f9575b5061104b565b61111a9060203d602011611121575b61111281836108ca565b810190612b58565b505f6110f3565b503d611108565b604051903d90823e3d90fd5b7342000000000000000000000000000000000000068073ffffffffffffffffffffffffffffffffffffffff6101805116145f146111e457803b15610480575f80916024604051809481937f2e1a7d4d00000000000000000000000000000000000000000000000000000000835260a05160048401525af180156102b3576111d1575b506111cc8280808060a051865af16110456134cb565b610ec5565b6111dc919250610835565b5f905f6111b6565b506040517fa9059cbb00000000000000000000000000000000000000000000000000000000815260a05173ffffffffffffffffffffffffffffffffffffffff831660048301526024820152602081806044810103815f73ffffffffffffffffffffffffffffffffffffffff61018051165af180156102b357611267575b50610ec5565b61127f9060203d6020116111215761111281836108ca565b505f611261565b6112909082612be6565b61271081029080820461271014901517156112e75760c8916112b191613494565b116112bd575f80610ebb565b60046040517ffe3cf204000000000000000000000000000000000000000000000000000000008152fd5b7f4e487b71000000000000000000000000000000000000000000000000000000005f52601160045260245ffd5b610ea691935091611339610eac933d805f833e61133181836108ca565b810190612bf3565b93915091610e98565b50508390612d0e565b8394610e0b565b61136691503d8088833e61133181836108ca565b5f610ddc565b60046040517fc990cf68000000000000000000000000000000000000000000000000000000008152fd5b5060c48201358510610cfb565b9094506113c091925060403d6040116102ac5761029e81836108ca565b919091935f610cec565b6113e491925060203d60201161045c5761044d81836108ca565b905f610c54565b6114029150823d841161045c5761044d81836108ca565b5f610c16565b60046040517fd0bcb760000000000000000000000000000000000000000000000000000000008152fd5b9061143c91612be6565b610b52565b90979998816117b7575b6040517f095ea7b300000000000000000000000000000000000000000000000000000000815260a0517f000000000000000000000000000000000000000000000000000000000000000073ffffffffffffffffffffffffffffffffffffffff1660048301526024820152602081806044810103815f73ffffffffffffffffffffffffffffffffffffffff61018051165af180156102b357611798575b506040517f095ea7b3000000000000000000000000000000000000000000000000000000008152610160517f000000000000000000000000000000000000000000000000000000000000000073ffffffffffffffffffffffffffffffffffffffff1660048301526024820152602081806044810103815f73ffffffffffffffffffffffffffffffffffffffff61014051165af180156102b357611779575b50604051610100527f5a47ddc300000000000000000000000000000000000000000000000000000000610100515273ffffffffffffffffffffffffffffffffffffffff6101805116600461010051015273ffffffffffffffffffffffffffffffffffffffff61014051166024610100510152851515604461010051015260a05160646101005101526101605160846101005101525f60a46101005101525f60c461010051015273ffffffffffffffffffffffffffffffffffffffff891660e4610100510152610124850135610104610100510152606061010051610124610100515f73ffffffffffffffffffffffffffffffffffffffff7f0000000000000000000000000000000000000000000000000000000000000000165af160e05260e051156102b357611705905f6080525f60c0525f9060e051611730575b6116f56116ff916116d660805160a051612be6565b60a0526116e860c05161016051612be6565b6101605260805190612d0e565b9b60c05190612d0e565b9b612d0e565b97851586611728575b61172357600161012051016101205290610b29565b610b35565b50811561170e565b905060603d606011611772575b6116f5611762826117546116ff94610100516108ca565b610100510161010051612cf3565b9160805260c052929150506116c1565b503d61173d565b6117919060203d6020116111215761111281836108ca565b505f611585565b6117b09060203d6020116111215761111281836108ca565b505f6114e7565b61180a6117fe876101605160a05173ffffffffffffffffffffffffffffffffffffffff610140511673ffffffffffffffffffffffffffffffffffffffff6101805116612e30565b6101605160a051613438565b6101605260a05261144b565b73420000000000000000000000000000000000000673ffffffffffffffffffffffffffffffffffffffff610140511614806119c6575b1561191a57608485013534036118f0577342000000000000000000000000000000000000063b156118e2576040517fd0e30db00000000000000000000000000000000000000000000000000000000081528181600481347342000000000000000000000000000000000000065af180156118e5576118ce575b50505b5f610b06565b6118d88291610835565b6118e257806118c5565b80fd5b6040513d84823e3d90fd5b60046040517f201c04ab000000000000000000000000000000000000000000000000000000008152fd5b6040517f23b872dd00000000000000000000000000000000000000000000000000000000815273ffffffffffffffffffffffffffffffffffffffff881660048201523060248201526084860135604482015290602082806064810103818473ffffffffffffffffffffffffffffffffffffffff61014051165af190811561112857506119a7575b506118c8565b6119bf9060203d6020116111215761111281836108ca565b505f6119a1565b5034151561184c565b73420000000000000000000000000000000000000673ffffffffffffffffffffffffffffffffffffffff61018051161480611b29575b15611a9557606485013534036118f0577342000000000000000000000000000000000000063b15610480576040517fd0e30db00000000000000000000000000000000000000000000000000000000081525f81600481347342000000000000000000000000000000000000065af180156102b357611a84575b50610afc565b611a8e9150610835565b5f80611a7e565b6040517f23b872dd00000000000000000000000000000000000000000000000000000000815273ffffffffffffffffffffffffffffffffffffffff888116600483015230602483015260648781013560448401526101805160209284929183915f91165af180156102b357611b0a5750610afc565b611b229060203d6020116111215761111281836108ca565b505f611a7e565b50341515611a05565b60046040517f9c8787c0000000000000000000000000000000000000000000000000000000008152fd5b611b7691925060203d60201161045c5761044d81836108ca565b905f610ad4565b60046040517f1ab7da6b000000000000000000000000000000000000000000000000000000008152fd5b90507f0dede6c4000000000000000000000000000000000000000000000000000000008103611fe157507ffffffffffffffffffffffffffffffffffffffffffffffffffffffffffffffffc8361010092810103011261048057611c0c60048301610807565b91611c1960248201610807565b91611c2660448301610828565b93611c3360c48401610807565b73ffffffffffffffffffffffffffffffffffffffff60e4850135921692824211611b7d576040517f79bc57d500000000000000000000000000000000000000000000000000000000815273ffffffffffffffffffffffffffffffffffffffff85811660048301528716602482015287151560448201526020818060648101038173ffffffffffffffffffffffffffffffffffffffff7f0000000000000000000000000000000000000000000000000000000000000000165afa80156102b35773ffffffffffffffffffffffffffffffffffffffff915f91611fc2575b5016968715611b32576040517f23b872dd00000000000000000000000000000000000000000000000000000000815273ffffffffffffffffffffffffffffffffffffffff92909216600483015230602483015260648681013560448401526020908390815f8c5af19182156102b357611e0b92611fa3575b506040517f095ea7b30000000000000000000000000000000000000000000000000000000081527f000000000000000000000000000000000000000000000000000000000000000073ffffffffffffffffffffffffffffffffffffffff166004820181905260648801356024830152989092602091849182905f9082906044820190565b03925af180156102b35773ffffffffffffffffffffffffffffffffffffffff98604095610104945f93611f84575b5086519a8b9687957f0dede6c40000000000000000000000000000000000000000000000000000000087528a6004880152828d1660248801521515604487015260648b0135606487015260848b0135608487015260a48b013560a48701521660c485015260e48401525af19283156102b3575f945f94611f26575b506040805186815260208101869052606494909401359084015273ffffffffffffffffffffffffffffffffffffffff16917fbc7d19d505c7ec4db83f3b51f19fb98c4c8a99922e7839d1ee608dfbee29501b90606090a3604051916020830152604082015260408152610f9f816108ae565b73ffffffffffffffffffffffffffffffffffffffff95507fbc7d19d505c7ec4db83f3b51f19fb98c4c8a99922e7839d1ee608dfbee29501b919450611f799060403d6040116102ac5761029e81836108ca565b959095949150611eb4565b611f9c9060203d6020116111215761111281836108ca565b505f611e39565b611fbb9060203d6020116111215761111281836108ca565b505f611d87565b611fdb915060203d60201161045c5761044d81836108ca565b5f611d0f565b9293927fcac88ea90000000000000000000000000000000000000000000000000000000092919083810361282c5750840160a07ffffffffffffffffffffffffffffffffffffffffffffffffffffffffffffffffc86830301126104805760048501359160248087013593604488013567ffffffffffffffff811161048057880194846023870112156104805760048601359661207c88612b70565b9660409861208c8a51998a6108ca565b80895260209786898b019260071b84010192818411610480578701915b8383106127cc575050505060846120c260648c01610807565b9a0135928342116127a35773ffffffffffffffffffffffffffffffffffffffff6120eb89612b88565b515116955f8083612658575b6124fe575b505088517f095ea7b300000000000000000000000000000000000000000000000000000000815273ffffffffffffffffffffffffffffffffffffffff7f0000000000000000000000000000000000000000000000000000000000000000166004820181905260248201839052929088816044815f8c5af180156124f4576124d7575b5088519b8c957fffffffffffffffffffffffffffffffffffffffffffffffffffffffffffffffff8097019d8e116124ab578a5f8d9e9f8c839f9d9e73ffffffffffffffffffffffffffffffffffffffff926121d891612bd2565b510151169b8a61221e825194859384937f5509a1ac0000000000000000000000000000000000000000000000000000000085528b60048601528401526044830190612c6d565b0381895afa9081156124a1575f91612487575b5080519088820191821161245b57879161224a91612bd2565b5110612432578c519b8c9485948552600485015286898501526044840160a0905260a4840161227891612c6d565b9173ffffffffffffffffffffffffffffffffffffffff166064840152608483015203815a5f948591f1968715612428575f9761240c575b5086518281019081116123e0576122c69088612bd2565b51106123b7576122d586612b88565b5191865191820191821161238c5750957fa078c4190abe07940190effc1846be0ccf03ad6007bc9e93f9697d0b460befbb916123148798839798612bd2565b51825191825287820152a3805192839182018380840152815180915283606084019201935f5b82811061237557505050610f9f9250037fffffffffffffffffffffffffffffffffffffffffffffffffffffffffffffffe081018352826108ca565b85518452948101948694509281019260010161233a565b7f4e487b71000000000000000000000000000000000000000000000000000000005f5260116004525ffd5b600487517f8199f5f3000000000000000000000000000000000000000000000000000000008152fd5b837f4e487b71000000000000000000000000000000000000000000000000000000005f5260116004525ffd5b6124219197503d805f833e61133181836108ca565b955f6122af565b88513d5f823e3d90fd5b60048d517f8199f5f3000000000000000000000000000000000000000000000000000000008152fd5b897f4e487b71000000000000000000000000000000000000000000000000000000005f5260116004525ffd5b61249b91503d805f833e61133181836108ca565b5f612231565b8e513d5f823e3d90fd5b877f4e487b71000000000000000000000000000000000000000000000000000000005f5260116004525ffd5b6124ed90893d8b116111215761111281836108ca565b505f61217e565b8b513d5f823e3d90fd5b88818061264f575b156125bc575090503461259357734200000000000000000000000000000000000006803b1561106657816004918c51928380927fd0e30db000000000000000000000000000000000000000000000000000000000825234905af1801561258957612575575b50505b5f806120fc565b61257f8291610835565b6118e2578061256b565b8b513d84823e3d90fd5b60048a517f201c04ab000000000000000000000000000000000000000000000000000000008152fd5b8b517f23b872dd00000000000000000000000000000000000000000000000000000000815273ffffffffffffffffffffffffffffffffffffffff939093166004840152306024840152604483018290528260648184805af19081156126445750612627575b5061256e565b61263d90883d8a116111215761111281836108ca565b505f612621565b8b51903d90823e3d90fd5b50341515612506565b507342000000000000000000000000000000000000068089148061279a575b15612711578334036126e857803b15610480575f6004918d51928380927fd0e30db000000000000000000000000000000000000000000000000000000000825234905af180156126de576126cd575b50806120f7565b6126d79150610835565b5f806126c6565b8c513d5f823e3d90fd5b60048c517f201c04ab000000000000000000000000000000000000000000000000000000008152fd5b508a517f23b872dd00000000000000000000000000000000000000000000000000000000815273ffffffffffffffffffffffffffffffffffffffff831660048201523060248201526044810184905289816064815f8d5af180156126de5790829161277d575b506120f7565b612793908b3d8d116111215761111281836108ca565b505f612777565b50341515612677565b600489517f1ab7da6b000000000000000000000000000000000000000000000000000000008152fd5b60808383031261048057896080918d8051906127e782610876565b6127f087610807565b82526127fd848801610807565b8483015261280c818801610828565b90820152606061281d818801610807565b908201528152019201916120a9565b9394937f6e553f6500000000000000000000000000000000000000000000000000000000935083146128825760046040517f7352d91c000000000000000000000000000000000000000000000000000000008152fd5b83907ffffffffffffffffffffffffffffffffffffffffffffffffffffffffffffffffc604092839281010301126104805773ffffffffffffffffffffffffffffffffffffffff60246128d660048701610807565b95013594168151937f72f702f30000000000000000000000000000000000000000000000000000000085526020948581600481865afa908115612ad6579073ffffffffffffffffffffffffffffffffffffffff915f91612b07575b5084517f23b872dd00000000000000000000000000000000000000000000000000000000815273ffffffffffffffffffffffffffffffffffffffff871660048201523060248201526044810189905291169086816064815f865af18015612afd57612ae0575b5083517f095ea7b300000000000000000000000000000000000000000000000000000000815273ffffffffffffffffffffffffffffffffffffffff8416600482015260248101889052908690829060449082905f905af18015612ad657612ab9575b50813b156104805782519081526004810186905273ffffffffffffffffffffffffffffffffffffffff841660248201525f8160448183865af18015612aaf5791610f739391610f9f969593612aa0575b507ffa2529c0b8e878c5cfbd265efb60d6c35f0ba5ad1132da46b8bde097baac8a49858351898152a251948593840190929173ffffffffffffffffffffffffffffffffffffffff6020916040840195845216910152565b612aa990610835565b5f612a49565b83513d5f823e3d90fd5b612acf90863d88116111215761111281836108ca565b505f6129f9565b84513d5f823e3d90fd5b612af690873d89116111215761111281836108ca565b505f612997565b85513d5f823e3d90fd5b612b1e9150873d891161045c5761044d81836108ca565b5f612931565b50339161094e565b90816020910312610480575173ffffffffffffffffffffffffffffffffffffffff811681036104805790565b90816020910312610480575180151581036104805790565b67ffffffffffffffff81116108495760051b60200190565b805115612b955760200190565b7f4e487b71000000000000000000000000000000000000000000000000000000005f52603260045260245ffd5b805160011015612b955760400190565b8051821015612b955760209160051b010190565b919082039182116112e757565b60209081818403126104805780519067ffffffffffffffff821161048057019180601f84011215610480578251612c2981612b70565b93612c3760405195866108ca565b818552838086019260051b820101928311610480578301905b828210612c5e575050505090565b81518152908301908301612c50565b9081518082526020808093019301915f5b828110612c8c575050505090565b8351805173ffffffffffffffffffffffffffffffffffffffff908116875281840151811687850152604080830151151590880152606091820151169086015260809094019392810192600101612c7e565b9190826040910312610480576020825192015190565b90816060910312610480578051916040602083015192015190565b919082018092116112e757565b606073ffffffffffffffffffffffffffffffffffffffff916004604051809481937f0902f1ac000000000000000000000000000000000000000000000000000000008352165afa80156102b357610f9f915f905f92612d7b575b50613a63565b9050612d96915060603d606011610406576103f681836108ca565b50905f612d75565b90816020910312610480575160ff811681036104805790565b60ff166012039060ff82116112e757565b60ff16604d81116112e757600a0a90565b60409060405191612de983610892565b6001835282915f5b602080821015612e2857835160209291612e0a82610876565b5f82525f818301525f868301525f6060830152828801015201612df1565b505091925050565b9493909291946040517f313ce567000000000000000000000000000000000000000000000000000000009081815260208160048173ffffffffffffffffffffffffffffffffffffffff87165afa9081156102b357612e9e91612e99915f91613409575b50612db7565b612dc8565b9060405190815260208160048173ffffffffffffffffffffffffffffffffffffffff8a165afa9081156102b357612edf91612e99915f916134095750612db7565b96604051947fd4b6846d00000000000000000000000000000000000000000000000000000000865260208660048173cf77a3ba9a5ca399b7c97c74d54e5b1beb874e435afa9586156102b357612fa0966040915f916133ea575b5081517f8c0037dc00000000000000000000000000000000000000000000000000000000815273ffffffffffffffffffffffffffffffffffffffff8088166004830152808b1660248301528815156044830152909116606482015296879081906084820190565b038173cf77a3ba9a5ca399b7c97c74d54e5b1beb874e435afa9889156102b3575f965f9a6133c3575b506040517f79bc57d500000000000000000000000000000000000000000000000000000000815273ffffffffffffffffffffffffffffffffffffffff86811660048301528916602482015286151560448201529260208460648173420dd381b31aef6683db6b902084cb0ffece40da5afa80156102b357876020916130a7965f916133a6575b506040517fcc56b2c500000000000000000000000000000000000000000000000000000000815273ffffffffffffffffffffffffffffffffffffffff9091166004820152901515602482015294859081906044820190565b038173420dd381b31aef6683db6b902084cb0ffece40da5afa9283156102b35787945f9461336f575b5081613347575f985b899c8a155f1461333657906130f19794939291613bba565b925b83156133145750613102612dd9565b91861561330d57815b87156133075785905b604051967fd4b6846d00000000000000000000000000000000000000000000000000000000885260208860048173cf77a3ba9a5ca399b7c97c74d54e5b1beb874e435afa9485156102b35773ffffffffffffffffffffffffffffffffffffffff60209681966044965f9c8d936132e6575b508390816040519661319688610876565b1686521689850152151560408401521660608201526131b487612b88565b526131be86612b88565b508988146132df57505b60405196879384927f095ea7b300000000000000000000000000000000000000000000000000000000845273cf77a3ba9a5ca399b7c97c74d54e5b1beb874e436004850152886024850152165af19182156102b357613270935f936132c0575b5060405193849283927fcac88ea9000000000000000000000000000000000000000000000000000000008452600484015284602484015260a0604484015260a4830190612c6d565b30606483015242608483015203818373cf77a3ba9a5ca399b7c97c74d54e5b1beb874e435af19081156102b3575f916132a857509190565b6132bc91503d805f833e61133181836108ca565b9190565b6132d89060203d6020116111215761111281836108ca565b505f613228565b90506131c8565b84919350613300908b3d8d1161045c5761044d81836108ca565b9290613185565b80613114565b849161310b565b955050505050604051613326816108ae565b6002815260403660208301379190565b613341979391613bba565b926130f3565b806133555760015b986130d9565b61335f8183613a63565b6133698d8b613a63565b1061334f565b945092506020843d60201161339e575b8161338c602093836108ca565b8101031261048057869351925f6130d0565b3d915061337f565b6133bd9150833d851161045c5761044d81836108ca565b5f61304f565b9099506133e091965060403d6040116102ac5761029e81836108ca565b959095985f612fc9565b613403915060203d60201161045c5761044d81836108ca565b5f612f39565b61342b915060203d602011613431575b61342381836108ca565b810190612d9e565b5f612e93565b503d613419565b9293929091156134635790610eac61345d610f9f9361345687612b88565b5190612be6565b94612bc2565b610eac61347861347e93613456879697612b88565b93612bc2565b91565b818102929181159184041417156112e757565b811561349e570490565b7f4e487b71000000000000000000000000000000000000000000000000000000005f52601260045260245ffd5b3d15613523573d9067ffffffffffffffff8211610849576040519161351860207fffffffffffffffffffffffffffffffffffffffffffffffffffffffffffffffe0601f84011601846108ca565b82523d5f602084013e565b606090565b1561352f57565b60646040517f08c379a000000000000000000000000000000000000000000000000000000000815260206004820152601360248201527f455448207472616e73666572206661696c6564000000000000000000000000006044820152fd5b919493926040517f313ce567000000000000000000000000000000000000000000000000000000009081815260208160048173ffffffffffffffffffffffffffffffffffffffff89165afa9081156102b3576135f391612e99915f916134095750612db7565b9060405190815260208160048173ffffffffffffffffffffffffffffffffffffffff88165afa9081156102b35761363491612e99915f916134095750612db7565b96604051927fd4b6846d00000000000000000000000000000000000000000000000000000000845260208460048173cf77a3ba9a5ca399b7c97c74d54e5b1beb874e435afa9384156102b3576136f5946040915f91613a44575b5081517f8c0037dc00000000000000000000000000000000000000000000000000000000815273ffffffffffffffffffffffffffffffffffffffff808a16600483015280891660248301528a15156044830152909116606482015294859081906084820190565b038173cf77a3ba9a5ca399b7c97c74d54e5b1beb874e435afa9889156102b3575f945f9a613a1d575b506040517f79bc57d500000000000000000000000000000000000000000000000000000000815273ffffffffffffffffffffffffffffffffffffffff88811660048301528716602482015288151560448201529260208460648173420dd381b31aef6683db6b902084cb0ffece40da5afa80156102b357896020916137fb965f916133a657506040517fcc56b2c500000000000000000000000000000000000000000000000000000000815273ffffffffffffffffffffffffffffffffffffffff9091166004820152901515602482015294859081906044820190565b038173420dd381b31aef6683db6b902084cb0ffece40da5afa9283156102b35789945f946139e6575b50816139be575f965b879c88155f146139ad57906138459794939291613bba565b905b81156133145750613856612dd9565b9186156139a657835b871561399e5750925b6040517fd4b6846d00000000000000000000000000000000000000000000000000000000815260208160048173cf77a3ba9a5ca399b7c97c74d54e5b1beb874e435afa80156102b357613950965f9673ffffffffffffffffffffffffffffffffffffffff93889361397b575b50839081604051966138e588610876565b1686521660208501521515604084015216606082015261390483612b88565b5261390e82612b88565b5060405193849283927f5509a1ac0000000000000000000000000000000000000000000000000000000084526004840152604060248401526044830190612c6d565b038173cf77a3ba9a5ca399b7c97c74d54e5b1beb874e435afa9081156102b3575f916132a857509190565b849193506139979060203d60201161045c5761044d81836108ca565b92906138d4565b905092613868565b809361385f565b6139b8979391613bba565b90613847565b806139cc5760015b9661382d565b6139d68183613a63565b6139e08d89613a63565b106139c6565b945092506020843d602011613a15575b81613a03602093836108ca565b8101031261048057889351925f613824565b3d91506139f6565b909950613a3a91945060403d6040116102ac5761029e81836108ca565b939093985f61371e565b613a5d915060203d60201161045c5761044d81836108ca565b5f61368e565b906b033b2e3c9fd0803ce8000000907fffffffffffffffffffffffffffffffffffffffffffffffffffffffffffffffff8284099282810292838086109503948086039514613bac5784831115610480578291098119600181018091116112e757613ae090831680930494600184805f030401908584119003613481565b9203041781600302916003830481036112e7576002809318613b028183613481565b84038481116112e757613b1491613481565b613b1e8183613481565b84038481116112e757613b3091613481565b613b3a8183613481565b84038481116112e757613b4c91613481565b613b568183613481565b84038481116112e757613b6891613481565b613b728183613481565b8403908482116112e757613b9091613b8991613481565b8092613481565b83039283116112e757610f9f92613ba691613481565b90613481565b505080925015610480570490565b94613be381613bdd87613bd781613be997999d989b9c9a9c613481565b99613481565b95613481565b97613481565b92670de0b6b3a76400009384613bff878a613481565b049185613c1881613c108a86613481565b04968b613481565b049315613c575750505090613c2c91612be6565b8181029181830414901517156112e757613c4c613c5292610f9f95612d0e565b90613494565b613494565b601e919492959650145f14613d1857613c708185612d0e565b91623cda2985810290810486036112e757826009026009810484036112e757613c9891612d0e565b90623cda2090808202918204036112e757613cc893613ba6613cbd92613cc294612d0e565b613da8565b93612d0e565b916107cd92808402938404036112e757613ceb92613ce591612be6565b94612d0e565b926107ca93808502948504036112e7578181029181830414901517156112e757610f9f92613c5291613494565b613d228185612d0e565b91619ab185810290810486036112e75782613d3c91612d0e565b90619ab090808202918204036112e757613d6093613ba6613cbd92613cc294612d0e565b918260c7029260c78404036112e757613d7c92613ce591612be6565b928360c6029360c68504036112e7578181029181830414901517156112e757610f9f92613c5291613494565b8015613ef057806001700100000000000000000000000000000000831015613eda575b60048268010000000000000000613e82941015613ecd575b640100000000811015613ec0575b62010000811015613eb3575b610100811015613ea7575b6010811015613e9b575b1015613e93575b613e238184613494565b0160011c613e318184613494565b0160011c613e3f8184613494565b0160011c613e4d8184613494565b0160011c613e5b8184613494565b0160011c613e698184613494565b0160011c613e778184613494565b0160011c8092613494565b80821015613e8e575090565b905090565b60011b613e19565b811c9160021b91613e12565b60081c91811b91613e08565b60101c9160081b91613dfd565b60201c9160101b91613df1565b60401c9160201b91613de3565b5050608081901c68010000000000000000613dcb565b505f9056","linkReferences":{}},"methodIdentifiers":{"_plugin()":"0cfd9ad4","aerodromeFactory()":"c45acd23","aerodromeRouter()":"e18e3a68","execute(bytes)":"09c5eabe","execute(bytes,address)":"6accdc13","getName()":"17d7de7c","getVersion()":"0d8e6e2c","quoteDepositLiquidity(address,address,bool,uint256,uint256,bool)":"e69224d4"},"id":35}