{
  "abi": [
    {
      "type": "constructor",
      "inputs": [
        {
          "name": "_registry",
          "type": "address",
          "internalType": "address"
        }
      ],
      "stateMutability": "nonpayable"
    },
    {
      "type": "receive",
      "stateMutability": "payable"
    },
    {
      "type": "function",
      "name": "execute",
      "inputs": [
        {
          "name": "_connector",
          "type": "address",
          "internalType": "address"
        },
        {
          "name": "_data",
          "type": "bytes",
          "internalType": "bytes"
        }
      ],
      "outputs": [
        {
          "name": "",
          "type": "bytes",
          "internalType": "bytes"
        }
      ],
      "stateMutability": "payable"
    },
    {
      "type": "function",
      "name": "registry",
      "inputs": [],
      "outputs": [
        {
          "name": "",
          "type": "address",
          "internalType": "contract ConnectorRegistry"
        }
      ],
      "stateMutability": "view"
    },
    {
      "type": "event",
      "name": "ConnectorExecuted",
      "inputs": [
        {
          "name": "connector",
          "type": "address",
          "indexed": true,
          "internalType": "address"
        },
        {
          "name": "caller",
          "type": "address",
          "indexed": true,
          "internalType": "address"
        },
        {
          "name": "data",
          "type": "bytes",
          "indexed": false,
          "internalType": "bytes"
        },
        {
          "name": "result",
          "type": "bytes",
          "indexed": false,
          "internalType": "bytes"
        }
      ],
      "anonymous": false
    },
    {
      "type": "error",
      "name": "ConnectorExecutionFailed",
      "inputs": [
        {
          "name": "connector",
          "type": "address",
          "internalType": "address"
        },
        {
          "name": "data",
          "type": "bytes",
          "internalType": "bytes"
        }
      ]
    },
    {
      "type": "error",
      "name": "ConnectorNotApproved",
      "inputs": [
        {
          "name": "connector",
          "type": "address",
          "internalType": "address"
        }
      ]
    }
  ],
  "bytecode": {
    "object": "0x60a03461007257601f6105a238819003918201601f19168301916001600160401b038311848410176100765780849260209460405283398101031261007257516001600160a01b0381169081900361007257608052604051610517908161008b8239608051818181608e01526101710152f35b5f80fd5b634e487b7160e01b5f52604160045260245ffdfe6080604090808252600480361015610021575b505050361561001f575f80fd5b005b5f3560e01c9182631cff79cd146100b6575050637b10399914610045578080610012565b346100b2575f7ffffffffffffffffffffffffffffffffffffffffffffffffffffffffffffffffc3601126100b2576020905173ffffffffffffffffffffffffffffffffffffffff7f0000000000000000000000000000000000000000000000000000000000000000168152f35b5f80fd5b83807ffffffffffffffffffffffffffffffffffffffffffffffffffffffffffffffffc3601126100b257823573ffffffffffffffffffffffffffffffffffffffff8082168083036100b25760249586359067ffffffffffffffff948583116100b257366023840112156100b25782820135948686116100b257898401938a8736920101116100b25788907fecac7cf50000000000000000000000000000000000000000000000000000000082528584830152818b60209b8c937f0000000000000000000000000000000000000000000000000000000000000000165afa9081156103c3575f9161038d575b501561035f575f809188518a8101907f6accdc130000000000000000000000000000000000000000000000000000000082528a8d82015261021c816101ea606482018c8b61049f565b336044830152037fffffffffffffffffffffffffffffffffffffffffffffffffffffffffffffffe08101835282610431565b519134905af1973d15610357573d986102348a6104dd565b9961024189519b8c610431565b8a523d5f8a8c013e5b156103135750506102857f25fbd8e076227fb9f0896280f3a1dc453080008fc552c7c113ab631c06c4a26f918651948786528786019161049f565b92808403878201528061029933958a6103ee565b0390a3835184019383818187019603126100b257838101519182116100b257019083603f830112156100b25782820151916102d3836104dd565b946102e083519687610431565b8386528284830101116100b25761030f92610300918386880191016103cd565b519282849384528301906103ee565b0390f35b918487610353939481519687967f8dc02213000000000000000000000000000000000000000000000000000000008852870152850152604484019161049f565b0390fd5b60609861024a565b8882858951917f46c393d1000000000000000000000000000000000000000000000000000000008352820152fd5b90508881813d83116103bc575b6103a48183610431565b810103126100b2575180151581036100b2578a6101a1565b503d61039a565b88513d5f823e3d90fd5b5f5b8381106103de5750505f910152565b81810151838201526020016103cf565b907fffffffffffffffffffffffffffffffffffffffffffffffffffffffffffffffe0601f60209361042a815180928187528780880191016103cd565b0116010190565b90601f7fffffffffffffffffffffffffffffffffffffffffffffffffffffffffffffffe0910116810190811067ffffffffffffffff82111761047257604052565b7f4e487b71000000000000000000000000000000000000000000000000000000005f52604160045260245ffd5b601f82602094937fffffffffffffffffffffffffffffffffffffffffffffffffffffffffffffffe093818652868601375f8582860101520116010190565b67ffffffffffffffff811161047257601f017fffffffffffffffffffffffffffffffffffffffffffffffffffffffffffffffe0166020019056",
    "linkReferences": {}
  },
  "methodIdentifiers": {
    "execute(address,bytes)": "1cff79cd",
    "registry()": "7b103999"
  },
  "id": 31
}